:100000000C9463000C948B000C948B000C948B006C
:100010000C948B000C948B000C948B000C948B0034
:100020000C948B000C948B000C948B000C948B0024
:100030000C948B000C948B000C948B000C948B0014
:100040000C9432040C948B000C94DB030C94B503D9
:100050000C948B000C948B000C948B000C948B00F4
:100060000C948B000C948B006364696E6F707375D5
:1000700078585B000000000800020100000304073C
:100080000000000000000000000000002500280023
:100090002B0000000000240027002A0004040404B0
:1000A0000404040402020202020203030303030322
:1000B00001020408102040800102040810200102FF
:1000C00004081020310B11241FBECFEFD8E0DEBF93
:1000D000CDBF15E0A0E0B1E0ECE0F8E202C0059091
:1000E0000D92AC3FB107D9F727E0ACEFB5E001C006
:1000F0001D92AF3FB207E1F710E0C3E6D0E004C0C5
:100100002197FE010E94D20DC236D107C9F70E9485
:10011000EE050C9404140C940000CF92DF92EF9241
:10012000FF920F931F93CF93DF936C017A018B01A2
:10013000C0E0D0E0CE15DF0581F0D8016D918D01D2
:10014000D601ED91FC910190F081E02DC601099559
:10015000892B11F02196EECF7E01C701DF91CF915F
:100160001F910F91FF90EF90DF90CF900895089529
:1001700080E090E00895FC01538D448D252F30E000
:10018000842F90E0821B930B541710F0CF960895A4
:1001900001970895FC01918D828D981761F0828DF1
:1001A000DF01A80FB11D5D968C91928D9F5F9F73AB
:1001B000928F90E008958FEF9FEF0895FC01918D4D
:1001C000828D981731F0828DE80FF11D858D90E0BA
:1001D00008958FEF9FEF0895FC01918D228D892F57
:1001E00090E0805C9F4F821B91098F73992708953F
:1001F00082E697E00E94EC0021E0892B09F420E0E0
:10020000822F0895FC01848DDF01A80FB11DA35A30
:10021000BF4F2C91848D90E001968F739927848F26
:10022000A689B7892C93A089B1898C918370806449
:100230008C93938D848D981306C00288F389E02DEA
:1002400080818F7D80830895EF92FF920F931F939B
:10025000CF93DF93EC0181E0888F9B8D8C8D981379
:1002600005C0E889F989808185FD26C0F62E0B8DB1
:1002700010E00F5F1F4F0F731127E02E8C8DE812D7
:100280000CC00FB607FCFACFE889F989808185FF99
:10029000F5CFCE010E940201F1CF8B8DFE01E80F58
:1002A000F11DE35AFF4FF0829FB7F8940B8FEA8954
:1002B000FB89808180620AC09FB7F894EE89FF892C
:1002C0006083E889F98980818370806480839FBF1F
:1002D00081E090E0DF91CF911F910F91FF90EF901F
:1002E0000895CF93DF93EC01888D8823C9F0EA89C4
:1002F000FB89808185FD05C0A889B9898C9186FD1F
:100300000FC00FB607FCF5CF808185FFF2CFA8891B
:10031000B9898C9185FFEDCFCE010E940201E7CF14
:10032000DF91CF91089580E090E0892B29F00E9421
:10033000F80081110C940000089590E0FC01EC5845
:10034000FF4F2491FC01E055FF4F3491FC01E4562E
:10035000FF4FE491EE2309F43CC0222339F123300E
:1003600091F038F42130A9F0223001F584B58F7D69
:1003700012C0273091F02830A1F02430B9F48091D8
:1003800080008F7D03C0809180008F7780938000F4
:100390000DC084B58F7784BD09C08091B0008F7780
:1003A00003C08091B0008F7D8093B000F0E0EE0F2D
:1003B000FF1FE857FF4FA591B4919FB7F8946111C3
:1003C00004C08C913095382302C0EC913E2B3C93B5
:1003D0009FBF08958E3008F08E50877080648093A0
:1003E0007C0080917A00806480937A0080917A000A
:1003F00086FDFCCF809178002091790090E0922BCF
:1004000008950E94D80D0F931F93CF93DF938EE032
:100410000E94EA018C018FE00E94EA01EC0184E174
:1004200091E00E94CD05B801110F880B990B0E9435
:10043000890C20E030E040E85AE30E943E0D20E0C5
:1004400030E040EA50E40E943E0D42E00E94FD048C
:100450008BE191E00E94CD05BE01DD0F880B990B69
:100460000E94890C20E030E040E85AE30E943E0DF3
:1004700020E030E040EA50E40E943E0D42E00E945D
:10048000FD0487E291E0DF91CF911F910F910C94D1
:10049000A804AF92BF92CF92DF92EF92FF920F9398
:1004A0001F93CF93DF938BE291E00E94CD052FE065
:1004B000C22ED12CE12CF12C85E391E00E94CD05D8
:1004C00040E1C701B6010E94B60487E391E00E94B3
:1004D000CD0581E0C81AD108E108F108EFEFCE168A
:1004E000DE06EE06FE0641F789E391E00E94A804CD
:1004F0008DE0A82E86E0B82E0DE316E093E0C92E1D
:10050000D12CE12CF12C8BE391E00E94CD054AE047
:10051000C701B6010E94B60487E391E00E94CD05B1
:10052000CFE0D0E0F801EC0FFD1F608170E080E0CB
:1005300090E040E10E94B60487E391E00E94CD057F
:10054000219780F7F501C2915F0181E491E00E945B
:10055000CD056C2F70E080E090E040E10E94B60491
:1005600089E391E00E94A804F1E0CF1AD108E108E4
:10057000F108005111098FEFC816D806E806F806F1
:1005800009F0C1CF809107069091080620910506D9
:10059000309106068217930728F4892B19F089E415
:1005A00091E002C088E691E00E94CD0588E891E0E4
:1005B0000E94CD0580910506909106060E94F704E1
:1005C00081E991E00E94CD0580910706909108068F
:1005D0000E94F70482EA91E00E94A804DF91CF9183
:1005E0001F910F91FF90EF90DF90CF90BF90AF9051
:1005F0000C9403020F931F93CF93DF93C0E0D0E0DE
:10060000082F10E061E08BE00E949D01C8010C2ED4
:1006100001C0880F0A94EAF787FD06C060E08AE00F
:100620000E949D0160E005C061E08AE00E949D019A
:1006300061E08DE00E949D010E947C0460E08BE0FF
:100640000E949D010E947C042196C830D105D1F6FC
:10065000DF91CF911F910F910895EF92FF920F9329
:100660001F93CF93DF9360E089E00E949D010E9479
:100670007C0461E089E00E949D010E947C040DE001
:1006800016E08DE3E82E86E0F82ECFE0D0E0F7010B
:10069000EC0FFD1F80810E94FA022197C0F7F8013C
:1006A00082918F010E94FA02F0E1EF1AF10886E0D0
:1006B0000930180751F760E08CE00E949D0160E06E
:1006C0008DE00E949D010E947C0461E08CE00E940C
:1006D0009D0161E08DE00E949D01DF91CF911F910E
:1006E0000F91FF90EF900C947C04AF92BF92CF9249
:1006F000DF92EF92FF920F931F93CF93DF9389E0E6
:10070000C82E86E0D82E9DE0E92E96E0F92EC0E0B6
:10071000D0E0CE010E945E0BF60181936F0100E0F4
:1007200010E05E01FFEFAF1ABF0AC501800F911FF5
:100730000E945E0BF701E00FF11F80830F5F1F4FD8
:100740000031110591F7619680E1E80EF11CC43487
:10075000D105F9F6DF91CF911F910F91FF90EF90A6
:10076000DF90CF90BF90AF9008951F920F920FB679
:100770000F9211242F933F934F935F936F937F9327
:100780008F939F93AF93BF93EF93FF9382E697E08E
:100790000E940201FF91EF91BF91AF919F918F91C4
:1007A0007F916F915F914F913F912F910F900FBE6D
:1007B0000F901F9018951F920F920FB60F92112451
:1007C0002F938F939F93EF93FF93E0917207F09194
:1007D00073078081E0917807F091790782FD12C05C
:1007E000908180917B078F5F8F7320917C078217A8
:1007F00051F0E0917B07F0E0EE59F84F958F809330
:100800007B0701C08081FF91EF919F918F912F9184
:100810000F900FBE0F901F9018953FB7F8948091DE
:10082000010690910206A0910306B091040626B538
:10083000A89B05C02F3F19F00196A11DB11D3FBF18
:10084000BA2FA92F982F8827820F911DA11DB11DA6
:10085000BC01CD0142E0660F771F881F991F4A95A2
:10086000D1F708951F920F920FB60F9211242F9374
:100870003F938F939F93AF93BF938091FD0590918A
:10088000FE05A091FF05B09100063091FC0523E024
:10089000230F2D3720F40196A11DB11D05C026E8B8
:1008A000230F0296A11DB11D2093FC058093FD0529
:1008B0009093FE05A093FF05B0930006809101067A
:1008C00090910206A0910306B09104060196A11D25
:1008D000B11D8093010690930206A0930306B09386
:1008E0000406BF91AF919F918F913F912F910F90EF
:1008F0000FBE0F901F901895CF92DF92EF92FF924C
:100900000E940D046B017C010E940D04DC01CB01EF
:100910008C199D09AE09BF09883E9340A105B10518
:1009200098F3FF90EF90DF90CF900895009769F0D3
:10093000FC0101900020E9F73197AF01481B590BEA
:10094000BC0182E697E00C948D0080E090E0089571
:10095000CF93DF930E949604EC0180E192E00E9425
:1009600096048C0F9D1FDF91CF9108958F929F92D7
:10097000AF92BF920F931F93CF93DF93CDB7DEB7A4
:10098000A1970FB6F894DEBF0FBECDBF19A24230BB
:1009900008F44AE08E010F5D1F4F842E912CA12C8C
:1009A000B12CA50194010E94B00DE62FB901CA0136
:1009B00001501109EA3014F4E05D01C0E95CD8018E
:1009C000EC93232B242B252B61F7C8010E9496045E
:1009D000A1960FB6F894DEBF0FBECDBFDF91CF91C9
:1009E0001F910F91BF90AF909F908F900895BC0181
:1009F00080E090E04AE00C94B6048F929F92AF9210
:100A0000BF92CF92DF92EF92FF920F931F93CF93FB
:100A1000DF936B017C01142F9B01AC010E94AB0D95
:100A2000882319F080EF95E027C046015701E8942C
:100A3000B7F82FEF3FEF4FE75FE7C501B4010E9422
:100A4000AB0D81110DC02FEF3FEF4FE75FE7C50101
:100A5000B4010E94E10B18161CF484EF95E00CC061
:100A60002FEF3FEF4FE75FE4C701B6010E94390D5A
:100A7000181684F488EF95E0DF91CF911F910F91C4
:100A8000FF90EF90DF90CF90BF90AF909F908F90AE
:100A90000C9496042FEF3FEF4FE75FECC701B601D0
:100AA0000E94E10B87FDE6CF20E030E0A901C701FD
:100AB000B6010E94E10B87FF0BC06DE282E697E072
:100AC0000E942401EC01F7FAF094F7F8F09402C0C8
:100AD000C0E0D0E000E060E070E080E09FE310174D
:100AE00041F020E030E040E251E40E94E60B0F5F6D
:100AF000F6CFA70196010E94750B6B017C010E9445
:100B0000580C4B015C014AE00E94B604C80FD91F83
:100B10001123A9F1C501B4010E94870C9B01AC010E
:100B2000C701B6010E94740B6B017C016EE282E684
:100B300097E00E942401C80FD91F20E030E040E276
:100B400051E4C701B6010E943E0D4B015C010E94B9
:100B5000580C6B017C01CB010E94F704C80FD91F10
:100B6000B60180E090E00E94870C9B01AC01C501BA
:100B7000B4010E94740B6B017C011150F1F6CE019F
:100B8000DF91CF911F910F91FF90EF90DF90CF9069
:100B9000BF90AF909F908F9008950C94960490E032
:100BA000FC01E055FF4F2491FC01E456FF4F849176
:100BB000882399F090E0880F991FFC01EE56FF4FB3
:100BC000A591B491FC01E857FF4F859194918FB79F
:100BD000F894EC91E22BEC938FBF0895789484B550
:100BE000826084BD84B5816084BD85B5826085BD29
:100BF00085B5816085BD80916E00816080936E00B7
:100C000010928100809181008260809381008091A8
:100C10008100816080938100809180008160809359
:100C200080008091B10084608093B1008091B00019
:100C300081608093B00080917A00846080937A0014
:100C400080917A00826080937A0080917A0081603E
:100C500080937A0080917A00806880937A00109265
:100C6000C100E0917207F091730782E08083E09108
:100C70006E07F0916F071082E0917007F091710795
:100C80008FEC808310927A07E0917607F0917707D6
:100C900086E08083E0917407F09175078081806120
:100CA0008083E0917407F09175078081886080836C
:100CB000E0917407F0917507808180688083E091EE
:100CC0007407F091750780818F7D808388EA91E0B9
:100CD0000E94CD0583E090E090930806809307067C
:100CE00084E690E090930606809305060E947503C3
:100CF0008DE00E94CF058AE00E94CF058BE00E9424
:100D0000CF058CE00E94CF0589E00E94CF0588E0E6
:100D10000E94CF0560E088E00E949D0160E08DE0C8
:100D20000E949D0160E08AE00E949D0160E08BE0EE
:100D30000E949D0161E08CE00E949D0161E089E0DC
:100D40000E949D010E942D038DEC91E00E94A80459
:100D50000E94490262E6662E66E0762EC1E5D6E084
:100D600076E2472E72E0572EECE72E2EE2E03E2E82
:100D700082E697E00E94EC000091000110910101D1
:100D8000181619060CF50F3F1105F4F4F801EE5989
:100D9000F94F80818D30C1F00F5F1F4F109301011B
:100DA0000093000182E697E00E94CA00F801EE5924
:100DB000F94F8083682F82E697E00E94240180E14A
:100DC00092E00E949604D4CF0F3F110524F083EDEA
:100DD00091E00E94A804E0910001F0910101EE5918
:100DE000F94F80818D3009F0FAC310828AEE91E0CC
:100DF0000E94CD0582E696E00E94A8042FE436E02A
:100E00003F932F93DF93CF9381E696E09F938F9349
:100E10002DEF31E03F932F937F926F920E94080E47
:100E200090934E0680934D0686E092E00E94A804BF
:100E300080914F06909150060E94F70480E192E065
:100E40000E94960420914D0630914E068DB79EB7B4
:100E50000A960FB6F8949EBF0FBE8DBF12161306EA
:100E60000CF0B3C380916106883409F477C3ACF405
:100E7000823409F44FC35CF4803309F0A6C380E2E6
:100E800093E00E94A804E0E0F0E00995A2C3833457
:100E900001F1873409F4EFC198C3833509F409C31C
:100EA0005CF4803509F453C3823509F08EC30E9487
:100EB000750385EE92E08BC3843509F443C3863510
:100EC00009F083C388E493E00E94A8040E9403020F
:100ED00080C32330310519F083E192E078C362E2E8
:100EE00072E081E596E00E94DD0D892BC9F58091C5
:100EF00050068F9380914F068F93DF93CF935F922D
:100F00004F927F926F920E94E60D82E696E00E94D9
:100F1000A80440914F06509150068DE096E02DB701
:100F20003EB7285F3F4F0FB6F8943EBF0FBE2DBFB0
:100F3000FC0120E030E060816E7F60834115510547
:100F400011F0616060832F5F3F4F31962031310592
:100F500091F74096EDE4F6E0E817F90749F739C351
:100F600069E472E081E596E00E94DD0D892BB9F518
:100F7000809150068F9380914F068F93DF93CF938C
:100F80005F924F927F926F920E94E60D82E696E00A
:100F90000E94A80440914F06509150068DE096E0C3
:100FA000EDB7FEB738960FB6F894FEBF0FBEEDBF93
:100FB000FC0120E030E060816D7F608341155105C8
:100FC00011F0626060832F5F3F4F31962031310511
:100FD00091F74096F6E08D349F0751F7FAC26DE421
:100FE00072E081E596E00E94DD0D892B09F053C087
:100FF000809150068F9380914F068F93DF93CF930C
:101000005F924F927F926F920E94E60D82E696E089
:101010000E94A80420914F0630915006D901A1707A
:10102000BB278DE096E04DB75EB7485F5F4F0FB6C8
:10103000F8945EBF0FBE4DBFAC01FA0160E070E0F6
:1010400010811B7F1083109711F0146010836F5F65
:101050007F4F31966031710599F7405F5F4F66E0D1
:101060004D34560751F722703327FC0140E050E021
:101070006081677F2115310509F0686060834F5FEB
:101080005F4F31964031510599F74096E6E08D3437
:101090009E0759F79EC260E572E081E596E00E94E6
:1010A000DD0D892B09F053C0809150068F938091FC
:1010B0004F068F93DF93CF935F924F927F926F9201
:1010C0000E94E60D82E696E00E94A80420914F0659
:1010D00030915006D901A170BB278DE096E04DB745
:1010E0005EB7485F5F4F0FB6F8945EBF0FBE4DBF4F
:1010F000AC01FA0160E070E010811F7E1083109750
:1011000011F0106110836F5F7F4F31966031710570
:1011100099F7405F5F4F66E04D34560751F72270F4
:101120003327FC0140E050E060816F7D21153105DF
:1011300009F0606260834F5F5F4F31964031510527
:1011400099F74096E6E08D349E0759F742C263E571
:1011500072E081E596E00E94DD0D892BB9F5809162
:1011600050068F9380914F068F93DF93CF935F92BA
:101170004F927F926F920E94E60D82E696E00E9467
:10118000A80440914F06509150068DE096E0EDB7CF
:10119000FEB738960FB6F894FEBF0FBEEDBFFC0148
:1011A00020E030E060816F7B60834115510511F0D4
:1011B000606460832F5F3F4F31962031310591F796
:1011C0004096F6E08D349F0751F703C267E572E061
:1011D00081E596E00E94DD0D892B09F049C08091E0
:1011E00050068F9380914F068F93DF93CF935F923A
:1011F0004F927F926F920E94E60D82E696E00E94E7
:10120000A80440914F06509150068DE096E0EDB74E
:10121000FEB738960FB6F894FEBF0FBEEDBFFC01C7
:1012200020E030E060816F7760834115510511F057
:10123000606860832F5F3F4F31962031310591F711
:101240004096F6E08D349F0751F7C3C16BEA72E018
:1012500081E596E00E94DD0D892B09F4EBC06FEA71
:1012600072E081E596E00E94DD0D892B09F4F2C061
:101270008BE592E0ACC12330310509F02DCE68E753
:1012800072E081E596E00E94DD0D892B79F5809171
:1012900050068F9380914F068F93DF93CF933F92A9
:1012A0002F927F926F920E94E60D82E696E00E9456
:1012B000A80440914F0650915006E9E0F6E02DE079
:1012C00036E08DB79EB708960FB6F8949EBF0FBE56
:1012D0008DBF80818F7E80834115510511F0806123
:1012E000808331962E173F07A1F773C16EE972E034
:1012F00081E596E00E94DD0D892B79F580915006FD
:101300008F9380914F068F93DF93CF933F922F92CD
:101310007F926F920E94E60D82E696E00E94A804FA
:1013200020914F0630915006E9E0F6E04DB75EB7E8
:10133000485F5F4F0FB6F8945EBF0FBE4DBF808110
:101340008F7D80832115310511F080628083319675
:1013500056E0ED30F50799F73CC162EA72E081E5AD
:1013600096E00E94DD0D892B69F5809150068F93E0
:1013700080914F068F93DF93CF933F922F927F926E
:101380006F920E94E60D20914F0630915006E9E0E1
:10139000F6E04DB75EB7485F5F4F0FB6F8945EBF9B
:1013A0000FBE4DBF80818F7B80832115310511F0E9
:1013B00080648083319656E0ED30F50799F782E638
:1013C00096E005C167EA72E081E596E00E94DD0DD6
:1013D000892B09F03BCF809150068F9380914F0667
:1013E0008F93DF93CF933F922F927F926F920E94C1
:1013F000E60D82E696E00E94A80420914F06309107
:101400005006E9E0F6E04DB75EB7485F5F4F0FB6B4
:10141000F8945EBF0FBE4DBF80818F77808321150A
:10142000310511F080688083319656E0ED30F50784
:1014300099F7CFC080914F0690915006909308067F
:1014400080930706209105063091060682179307C0
:1014500080F014C020914F0630915006309306065C
:10146000209305068091070690910806821793073E
:1014700028F4892B19F089E491E002C088E691E014
:101480000E94CD0588E891E00E94CD058091050677
:10149000909106060E94F70481E991E00E94CD0533
:1014A00080910706909108060E94F70482EA91E075
:1014B0008EC049E0C42E46E0D42E5DE0E52E56E015
:1014C000F52E00E010E0F60161916F01C8010E9465
:1014D000660B812C912C5801FFEFAF1ABF0AF70160
:1014E000E80DF91D6081C501880D991D0E94660BEC
:1014F0002FEF821A920A30E18316910481F70F5E72
:101500001F4F40E1E40EF11C04341105E1F683EBBA
:1015100092E05DC0EDE0F6E02DE336E08FE090E094
:10152000D901A80FB91F5EEB5C930197C8F712921F
:101530002051310989E096E08E179F0779F78BECEF
:1015400092E045C00E942D0382E093E040C088E312
:1015500093E00E94A8040E9449023BC081E693E008
:101560000E94A8048EE893E00E94A80480EC93E017
:101570000E94A80481EF93E00E94A80487E494E00D
:101580000E94A8048BE994E00E94A80482EB94E0F6
:101590000E94A80484ED94E00E94A80481EF94E0E6
:1015A0000E94A80481E295E00E94A80485E595E0E8
:1015B0000E94A80481E895E00E94A80484E995E0CF
:1015C0000E94A8048BEA95E002C088ED95E00E9495
:1015D000A8042FEF3FEF3093010120930001809189
:1015E00005069091060620910706309108062817F7
:1015F000390760F52115310549F1821B930B8230C3
:10160000910538F0880F991F880F991F059701974A
:10161000F1F761E08DE00E949D01F89461E088E0BF
:101620000E949D01809107069091080682309105E5
:1016300038F0880F991F880F991F05970197F1F7C8
:1016400060E088E00E949D01789404C060E088E03A
:101650000E949D0160E08DE00E949D010E94930127
:1016600087CBE2E6F7E01382128288EE93E0A0E0F7
:10167000B0E084839583A683B78386E091E091836D
:10168000808385EC90E09587848784EC90E0978751
:10169000868780EC90E0918B808B81EC90E0938B3F
:1016A000828B82EC90E0958B848B86EC90E0978B1C
:1016B000868B118E128E138E148E0895F999FECF9B
:1016C00092BD81BDF89A992780B50895262FF99982
:1016D000FECF1FBA92BD81BD20BD0FB6F894FA9A15
:1016E000F99A0FBE019608955058BB27AA270E9469
:1016F0008C0B0C94FF0C0E94F10C38F00E94F80C3B
:1017000020F039F49F3F19F426F40C94EE0C0EF4FB
:10171000E095E7FB0C94E80CE92F0E94100D58F3BC
:10172000BA17620773078407950720F079F4A6F5C6
:101730000C94320D0EF4E0950B2EBA2FA02D0B0158
:10174000B90190010C01CA01A0011124FF27591B06
:1017500099F0593F50F4503E68F11A16F040A22F0C
:10176000232F342F4427585FF3CF4695379527957D
:10177000A795F0405395C9F77EF41F16BA0B620B7C
:10178000730B840BBAF09150A1F0FF0FBB1F661FC3
:10179000771F881FC2F70EC0BA0F621F731F841F06
:1017A00048F4879577956795B795F7959E3F08F02C
:1017B000B0CF9395880F08F09927EE0F97958795EE
:1017C00008950E94C40C08F481E008950E94FA0B69
:1017D0000C94FF0C0E94F80C58F00E94F10C40F0A1
:1017E00029F45F3F29F00C94E80C51110C94330D4F
:1017F0000C94EE0C0E94100D68F39923B1F355235D
:1018000091F3951B550BBB27AA2762177307840713
:1018100038F09F5F5F4F220F331F441FAA1FA9F3A9
:1018200035D00E2E3AF0E0E832D091505040E69597
:10183000001CCAF72BD0FE2F29D0660F771F881FF8
:10184000BB1F261737074807AB07B0E809F0BB0BEB
:10185000802DBF01FF2793585F4F3AF09E3F5105FF
:1018600078F00C94E80C0C94330D5F3FE4F3983E51
:10187000D4F3869577956795B795F7959F5FC9F7E8
:10188000880F911D9695879597F90895E1E0660F69
:10189000771F881FBB1F621773078407BA0720F0E2
:1018A000621B730B840BBA0BEE1F88F7E09508954B
:1018B0000E94180D88F09F5798F0B92F9927B751BB
:1018C000B0F0E1F0660F771F881F991F1AF0BA95E4
:1018D000C9F714C0B13091F00E94320DB1E0089503
:1018E0000C94320D672F782F8827B85F39F0B93FF5
:1018F000CCF3869577956795B395D9F73EF4909597
:101900008095709561957F4F8F4F9F4F0895E89414
:1019100009C097FB3EF490958095709561957F4F37
:101920008F4F9F4F9923A9F0F92F96E9BB279395E5
:10193000F695879577956795B795F111F8CFFAF4F5
:10194000BB0F11F460FF1BC06F5F7F4F8F4F9F4F26
:1019500016C0882311F096E911C0772321F09EE884
:10196000872F762F05C0662371F096E8862F70E0EA
:1019700060E02AF09A95660F771F881FDAF7880FC4
:101980009695879597F90895990F0008550FAA0B1A
:10199000E0E8FEEF16161706E807F907C0F0121682
:1019A0001306E407F50798F0621B730B840B950B85
:1019B00039F40A2661F0232B242B252B21F40895DA
:1019C0000A2609F4A140A6958FEF811D811D089577
:1019D00097F99F6780E870E060E008959FEF80ECE2
:1019E000089500240A941616170618060906089585
:1019F00000240A9412161306140605060895092EEB
:101A00000394000C11F4882352F0BB0F40F4BF2B59
:101A100011F460FF04C06F5F7F4F8F4F9F4F089599
:101A200057FD9058440F551F59F05F3F71F047958F
:101A3000880F97FB991F61F09F3F79F08795089574
:101A4000121613061406551FF2CF4695F1DF08C093
:101A5000161617061806991FF1CF869571056105B0
:101A600008940895E894BB2766277727CB0197F958
:101A700008950E94C40C08F48FEF08950E94510D40
:101A80000C94FF0C0E94F10C38F00E94F80C20F02E
:101A9000952311F00C94E80C0C94EE0C11240C948A
:101AA000330D0E94100D70F3959FC1F3950F50E018
:101AB000551F629FF001729FBB27F00DB11D639F00
:101AC000AA27F00DB11DAA1F649F6627B00DA11DA6
:101AD000661F829F2227B00DA11D621F739FB00D4C
:101AE000A11D621F839FA00D611D221F749F3327BC
:101AF000A00D611D231F849F600D211D822F762F55
:101B00006A2F11249F5750409AF0F1F088234AF031
:101B1000EE0FFF1FBB1F661F771F881F915050409D
:101B2000A9F79E3F510580F00C94E80C0C94330DFE
:101B30005F3FE4F3983ED4F3869577956795B79524
:101B4000F795E7959F5FC1F7FE2B880F911D96953E
:101B5000879597F908950E94C40C880B990B0895F6
:101B6000A1E21A2EAA1BBB1BFD010DC0AA1FBB1FA1
:101B7000EE1FFF1FA217B307E407F50720F0A21B13
:101B8000B30BE40BF50B661F771F881F991F1A9480
:101B900069F760957095809590959B01AC01BD01AA
:101BA000CF010895EE0FFF1F0590F491E02D0994E9
:101BB00081E090E0F8940C940414FB01DC018D9119
:101BC000019080190110D9F3990B0895AEE0B0E0AF
:101BD000ECEEFDE00C94DB130D891E8986E08C830E
:101BE0001A8309838FEF9FE79E838D83AE01475E43
:101BF0005F4F6F89788DCE0101960E94210EEF8193
:101C0000F885E00FF11F10822E96E4E00C94F71394
:101C1000AEE0B0E0EEE0FEE00C94DD1385E08C83F6
:101C20008B899C899A838983AE01495E5F4F6D8958
:101C30007E89CE0101960E949E112E96E2E00C94C0
:101C4000F913ABE0B0E0E7E2FEE00C94CD136C01D9
:101C50007B018A01FC0117821682838181FFCCC13E
:101C6000CE0101963C01F6019381F70193FD859128
:101C700093FF81917F01882309F4BAC1853239F439
:101C800093FD859193FF81917F01853229F4B601FF
:101C900090E00E941713E7CF912C212C312CFFE10B
:101CA000F315D8F08B3279F038F4803279F0833242
:101CB000A1F4232D20611DC08D3261F0803369F4C1
:101CC000232D216016C0832D8260382EE32DE46021
:101CD0003E2E2AC0F32DF8601DC037FC2DC020ED2C
:101CE000280F2A3040F08E32B9F436FC81C1232D02
:101CF0002064322E19C036FE06C08AE0989E200D60
:101D00001124922E11C0EAE02E9E200D1124222EC5
:101D1000F32DF0623F2E08C08C3621F4832D8068AD
:101D2000382E02C0883641F4F70193FD859193FF68
:101D300081917F018111B3CF982F9F7D955493306E
:101D400028F40C5F1F4F9FE399830DC0833631F059
:101D5000833771F0833509F059C021C0F8018081C3
:101D600089830E5F1F4F88248394912C530113C0E5
:101D70002801F2E04F0E511CF801A080B18036FE20
:101D800003C0692D70E002C06FEF7FEFC5010E94B4
:101D9000CE124C018201F32DFF773F2E16C0280191
:101DA00022E0420E511CF801A080B18036FE03C033
:101DB000692D70E002C06FEF7FEFC5010E94C31272
:101DC0004C01F32DF0683F2E820133FC1BC0822DA5
:101DD00090E088169906B0F4B60180E290E00E9487
:101DE00017132A94F4CFF50137FC859137FE8191C2
:101DF0005F01B60190E00E94171321102A9421E0A0
:101E0000821A91088114910471F7E8C0843611F0A8
:101E1000893641F5F80137FE07C060817181828102
:101E200093810C5F1F4F08C060817181072E000CE9
:101E3000880B990B0E5F1F4FF32DFF763F2E97FFF8
:101E400009C090958095709561957F4F8F4F9F4FFA
:101E5000F0683F2E2AE030E0A3010E946C13882E28
:101E6000861845C0853731F4232D2F7EB22E2AE007
:101E700030E025C0932D997FB92E8F36C1F018F42C
:101E8000883579F0B5C0803719F0883721F0B0C0B7
:101E9000E92FE061BE2EB4FE0DC0FB2DF460BF2E15
:101EA00009C034FE0AC0292F2660B22E06C028E0E1
:101EB00030E005C020E130E002C020E132E0F8016E
:101EC000B7FE07C060817181828193810C5F1F4FD3
:101ED00006C06081718180E090E00E5F1F4FA3011A
:101EE0000E946C13882E8618FB2DFF773F2E36FE3E
:101EF0000DC0232D2E7FA22E891458F434FE0BC062
:101F000032FC09C0832D8E7EA82E05C0B82CA32CD0
:101F100003C0B82C01C0B92CA4FE0FC0FE01E80D0F
:101F2000F11D8081803321F49A2D997EA92E09C05C
:101F3000A2FE06C0B394B39404C08A2D867809F03B
:101F4000B394A3FC11C0A0FE06C0B21488F4280C00
:101F5000922C9B180EC0B21460F4B60180E290E09F
:101F60000E941713B394F7CFB21418F42B1802C0C1
:101F7000982C212CA4FE10C0B60180E390E00E94B2
:101F80001713A2FE17C0A1FC03C088E790E002C0AF
:101F900088E590E0B6010CC08A2D867859F0A1FE44
:101FA00002C08BE201C080E2A7FC8DE2B60190E0A6
:101FB0000E941713891438F4B60180E390E00E9460
:101FC00017139A94F7CF8A94F301E80DF11D8081DD
:101FD000B60190E00E9417138110F5CF222009F47A
:101FE00042CEB60180E290E00E9417132A94F6CF09
:101FF000F6018681978102C08FEF9FEF2B96E2E179
:102000000C94E91320FD09C0FC0123FD05C022FF4B
:1020100002C07383628351834083089544FD17C0D7
:1020200046FD17C0AB01BC01DA01FB01AA0FBB1FC3
:10203000EE1FFF1F1094D1F74A0F5B1F6E1F7F1F0B
:10204000CB01BA01660F771F881F991F09C033E0C3
:1020500001C034E0660F771F881F991F3150D1F7F8
:10206000620F711D811D911D08950F931F93CF93D2
:10207000DF938C01C8010E94D912EC0197FD08C0C2
:102080000E94AF12892BB1F7B801CE010E94531301
:10209000CE01DF91CF911F910F9108958F929F9262
:1020A000AF92BF92EF92FF920F931F93CF93DF9364
:1020B0008C01D62F7A01B22E0E94D9129C013327AF
:1020C0002B32310531F02D32310561F48B2D8068D2
:1020D000B82ED15011F480E068C0C8010E94D91216
:1020E00097FDF9CFCB2DCD7F2B2D207309F58033B4
:1020F000F9F4AA24AA94AD0E09F443C0C8010E94C1
:10210000D91297FD3EC09C012F7D3327283531051C
:1021100049F4C264D250A9F1C8010E94D91297FFB4
:1021200007C02FC0B6FE02C0C26001C0C261DA2D76
:10213000812C912C540120ED280F283080F0C4FF11
:1021400004C0B8010E94531319C02A3040F0C6FFE2
:10215000F8CF2F7D3FEE320F363098F727504C2FB7
:10216000C501B4010E940E104B015C01C260D15048
:1021700059F0C8010E94D91297FFDDCFC1FD04C0FC
:10218000AACF812C912C5401C7FF08C0B094A09411
:1021900090948094811C911CA11CB11C2C2FB50122
:1021A000A401C7010E94021081E0DF91CF911F912D
:1021B0000F91FF90EF90BF90AF909F908F900895F8
:1021C000A0E2B0E0E6EEF0E10C94D0135C01962EB4
:1021D0007A01F9018E010F5F1F4F680180E2D8017B
:1021E0001D928A95E9F7D50113968C9080E090E0D6
:1021F000612C712C30E061E070E083FC259183FE5E
:1022000021918F01522E211103C080E090E092C0F5
:102210002E3511F4009751F1432F50E0481759071C
:102220003CF42D3559F12D3219F4772009F103C012
:10223000772009F46AC0452D469546954695D60106
:10224000A40FB11D452D47708B0102C0000F111F57
:102250004A95E2F7A8015C91452B4C93651459F01F
:10226000561410F45394E7CF5A94E5CF31E004C0EC
:102270007724739401C0712C0196BFCF772019F099
:102280008E8180628E83311103C08824839417C0AD
:10229000F6019E012F5D3F4F8081809581932E171F
:1022A0003F07D1F7F2CFE114F10429F0D7018C9365
:1022B000F70131967F019A94812C9920F9F0C5019C
:1022C0000E94D91297FD18C0FC01FF2723E0F59565
:1022D000E7952A95E1F7EC0DFD1D208130E0AC017A
:1022E0004770552702C0359527954A95E2F720FD9E
:1022F000DACFB5010E945313811087CFE114F104A6
:1023000011F0D7011C92C80115C0422F4695469581
:102310004695D601A40FB11D422F47708B0102C014
:10232000000F111F4A95E2F7A8015C91452B4C93D1
:10233000622EA2CFA096EFE00C94EC13A0E0B0E0E8
:10234000E4EAF1E10C94D0136C01EB015A01FC01B9
:1023500017821682512CF601E380FE01E3FC859181
:10236000E3FE8191182FEF01882309F4EEC090E07D
:102370000E94AF12892B21F0C6010E943510EBCFCD
:10238000153241F4FE01E3FC1591E3FE1191EF01DA
:10239000153281F4C6010E94D91297FDD4C0412F95
:1023A00050E09C01332724173507A9F2B6010E949B
:1023B0005313CBC01A3239F4E3FC1591E3FE1191AB
:1023C000EF0101E001C000E0F12C20ED210F2A30E7
:1023D00080F402606F2D70E080E090E040E20E94A7
:1023E0000E10F62EFE01E3FC1591E3FE1191EF01B4
:1023F000ECCF01FF03C0F11003C0A7C0FF24FA9483
:10240000183619F01C3651F010C0FE01E3FC15918E
:10241000E3FE1191EF01183641F408600460FE01FB
:10242000E3FC1591E3FE1191EF01112309F48DC036
:10243000612F70E088E690E00E94B812892B09F4C1
:1024400084C000FD07C0F50180809180C50102961F
:102450005C0102C0812C912C1E3651F4F60146819C
:10246000578160E070E0202FC4010E94021073CFFA
:102470001336A9F401FD02C0FF24F394C6010E94A3
:10248000D91297FD60C08114910429F0F401808372
:10249000C40101964C01FA94F110F0CF50C01B35E5
:1024A00059F49E01A4016F2DC6010E94E010EC01B9
:1024B000892B09F044C03EC0C6010E94351097FD2B
:1024C00042C01F3661F128F4143639F1193651F142
:1024D00028C0133771F0153701F123C0811491041E
:1024E00029F0F4016082C40101964C01FA94FF20A6
:1024F00071F0C6010E94D9123C0197FD08C00E94EC
:10250000AF12892B59F3B601C3010E9453138114F2
:102510009104A9F0F401108212C0006203C00061AE
:1025200001C00064202FA4016F2DC6010E944E102F
:10253000811105C0F6018381807329F406C000FD76
:102540000ACF539408CF552019F0852D90E002C092
:102550008FEF9FEFCDB7DEB7EFE00C94EC13911146
:102560000C94CA13803219F089508550C8F7089529
:10257000FC010590061621F00020D9F7C00108954E
:102580003197CF010895FC01059061507040011012
:10259000D8F7809590958E0F9F1F0895FC0161508C
:1025A000704001900110D8F7809590958E0F9F1F75
:1025B0000895CF93DF93EC012B8120FF33C026FFDA
:1025C0000AC02F7B2B838E819F8101969F838E83F0
:1025D0008A8190E029C022FF0FC0E881F9818081C3
:1025E000082E000C990B009719F420622B831AC057
:1025F0003196F983E8830EC0EA85FB85099597FF3C
:1026000009C02B81019611F080E201C080E1822B8C
:102610008B8308C02E813F812F5F3F4F3F832E83E6
:10262000992702C08FEF9FEFDF91CF9108950F930D
:102630001F93CF93DF93FB01238121FD03C08FEF15
:102640009FEF2CC022FF16C046815781248135811F
:102650004217530744F4A081B1819D012F5F3F4F82
:10266000318320838C93268137812F5F3F4F3783BF
:10267000268314C08B01EC01FB010084F185E02D61
:102680000995892BE1F6D80116968D919C911797A3
:10269000019617969C938E931697CE01DF91CF915A
:1026A0001F910F910895FB01238120FF12C026FD89
:1026B00010C08F3F3FEF930761F082832F7D20642E
:1026C0002383268137812150310937832683992737
:1026D00008958FEF9FEF0895FA01AA27283051F14E
:1026E000203181F1E8946F936E7F6E5F7F4F8F4F43
:1026F0009F4FAF4FB1E03ED0B4E03CD0670F781FA2
:10270000891F9A1FA11D680F791F8A1F911DA11D86
:102710006A0F711D811D911DA11D20D009F46894BF
:102720003F912AE0269F11243019305D3193DEF667
:10273000CF010895462F4770405D4193B3E00FD01D
:10274000C9F7F6CF462F4F70405D4A3318F0495D08
:1027500031FD4052419302D0A9F7EACFB4E0A695EB
:102760009795879577956795BA95C9F7009761050D
:10277000710508959B01AC010A2E06945795479563
:1027800037952795BA95C9F7620F731F841F951F58
:10279000A01D08959927882708952F923F924F9260
:1027A0005F926F927F928F929F92AF92BF92CF92E1
:1027B000DF92EF92FF920F931F93CF93DF93CDB7EA
:1027C000DEB7CA1BDB0B0FB6F894DEBF0FBECDBF62
:1027D00009942A88398848885F846E847D848C8433
:1027E0009B84AA84B984C884DF80EE80FD800C813C
:1027F0001B81AA81B981CE0FD11D0FB6F894DEBF1F
:0C2800000FBECDBFED010895F894FFCF8E
:10280C00FFFF0000000024018D00BB007101EC00F3
:10281C00CA00DE00566464203D200020563B205642
:10282C00646470203D200020562E004368616E6E5B
:10283C00656C3A20003000203A2000434849502073
:10284C0000474C4F42414C20005465737420707506
:10285C006C73652067656E657261746F7220656E4E
:10286C0061626C65643A2000546573742070756CF9
:10287C0073652067656E657261746F72206469732D
:10288C0061626C65643A2000706572696F643D200A
:10289C0000206D63732C206475726174696F6E3DDA
:1028AC002000206D63732E004C4152205450432065
:1028BC00434F4E54524F4C4C455220696E697469CB
:1028CC00616C697A6174696F6E2E2E2E00646F6E66
:1028DC00652E00496E70757420627566666572208F
:1028EC006F766572666C6F772100526563656976E9
:1028FC00656420636F6D6D616E643A200025632002
:10290C00257320257500204269742069733A2000D4
:10291C000D0A0057726F6E6720636F6D6D616E6488
:10292C00210053545300536574204368616E6E65E7
:10293C006C20526567697374657220626974202516
:10294C007320746F2025752E00534E43005347009F
:10295C0053540053444300534246004E6F6E657807
:10296C00697374656E742062697420696E20726577
:10297C006769737465722100533136005365742096
:10298C00476C6F62616C2052656769737465722065
:10299C0062697420257320746F2025752E005354A2
:1029AC0042005354423100534C4B00545044005499
:1029BC00505000536176656420636F6E66696720C2
:1029CC00696E20454550524F4D2E0052657665720A
:1029DC0073656420746F20626173696320636F6E2A
:1029EC006669672E00526573746F72656420636F3D
:1029FC006E6669672066726F6D20454550524F4D6B
:102A0C002E0053656E7420636F6E66696720746F59
:102A1C00204C41524153494320626F6172642E0035
:102A2C00526573657474696E6720636F6E74726F30
:102A3C006C6C65722E2E2E0043757272656E74204E
:102A4C00636F6E6669673A00506F776572207375B5
:102A5C0070706C7920706172616D65746572733A17
:102A6C00002A2A2A2A2A2A2A2A2A2A2A2A2A2043D5
:102A7C006F6D6D616E642068656C70202A2A2A2A3D
:102A8C002A2A2A2A2A2A2A2A2A2A2A2A2A004320B5
:102A9C004249542056414C55452020736574207290
:102AAC00656769737465722062697420696E20634E
:102ABC0068616E6E656C207265676973746572000F
:102ACC0047204249542056414C554520207365748B
:102ADC002072656769737465722062697420696E0F
:102AEC0020676C6F62616C207265676973746572C4
:102AFC000047205450442056414C554520207365C6
:102B0C007420746573742070756C736520647572B1
:102B1C006174696F6E2C206D6963726F7365636F7E
:102B2C006E64732C2073657474696E6720746F20E7
:102B3C00302064697361626C6573207465737420F2
:102B4C0070756C73652E0047205450502056414CC4
:102B5C005545202073657420746573742070756CF2
:102B6C00736520706572696F642C206D6963726F78
:102B7C007365636F6E64732C2073657474696E6710
:102B8C0020746F20302064697361626C65732074EB
:102B9C006573742070756C73652E005020707269AB
:102BAC006E742063757272656E7420636F6E6669E5
:102BBC0067005320736176652063757272656E745D
:102BCC0020636F6E66696720696E746F204545508F
:102BDC00524F4D005220726573746F726520636F93
:102BEC006E6669672066726F6D20454550524F4D79
:102BFC0000422072657475726E20746F206261736E
:102C0C00696320636F6E6669672028726F757469DB
:102C1C006E6520726561646F7574206D6F646529D3
:102C2C00005420696E697469617465207472616EF8
:102C3C00736D697373696F6E206F6620636F6E6658
:102C4C00696720746F2066726F6E74656E642062A3
:102C5C006F617264005620646973706C61792070C6
:102C6C006F77657220737570706C79206F757470E6
:102C7C00757420766F6C746167657320696E20566D
:102C8C00003020726573657420636F6E74726F6CA4
:102C9C006C65720048207072696E74207468697378
:102CAC002068656C702070616765002A2A2A2A2AC0
:102CBC002A2A2A2A2A2A2A2A2A2A2A2A2A2A2A2A68
:102CCC002A2A2A2A2A2A2A2A2A2A2A2A2A2A2A2A58
:102CDC002A2A2A2A2A2A2A00436F6D6D616E6420E3
:102CEC006E6F74207265636F676E697A656421001C
:0C2CFC006E616E00696E66006F76660007
:00000001FF
